:1000000000000120750300005D0300005F03000095
:1000100061030000630300006503000000000000AE
:100020000000000000000000000000006703000066
:1000300069030000000000006B0300006D03000076
:100040006F0300006F0300003D24000099240000AE
:100050006F0300006F0300006F0300006F030000D8
:100060006F0300006F0300006F0300006F030000C8
:100070006F0300006F0300006F0300006F030000B8
:100080006F0300006F0300006F0300006F030000A8
:100090006F0300006F0300006F0300006F03000098
:1000A0006F0300006F0300006F0300006F03000088
:1000B0006F0300006F03000000000000000000005C
:1000C0006F0300006F0300006F0300006F03000068
:1000D0006F0300006F0300006F03000000000000CA
:1000E0000000000000000000000000000000000010
:1000F0000000000000000000000000000000000000
:1001000000000000000000000000000000000000EF
:1001100000000000000000000000000000000000DF
:1001200000000000000000000000000000000000CF
:1001300000000000000000000000000000000000BF
:1001400000000000000000000000000000000000AF
:10015000000000000000000000000000000000009F
:10016000000000000000000000000000000000008F
:10017000000000000000000000000000000000007F
:10018000000000000000000000000000000000006F
:10019000000000000000000000000000000000005F
:1001A000000000000000000000000000000000004F
:1001B000000000000000000000000000000000003F
:1001C000000000000000000000000000000000002F
:1001D000000000000000000000000000000000001F
:1001E000000000000000000000000000000000000F
:1001F00000000000000000000000000000000000FF
:10020000354936480A1A02D0072291438D463449AF
:1002100034480A1A06D00722914381F30988022242
:1002200082F3148830483149314A00F044F83148AB
:100230003149324A00F03FF831483249324A00F041
:100240003AF832483249334A00F035F832483349F7
:10025000334A00F030F833483349344A00F02BF881
:1002600033483449344A00F026F8344834490022EF
:1002700000F02CF833483449002200F027F83348C6
:100280003349091A082902DB002202604160314A21
:1002900090471F481F49884205D00268043003B4C4
:1002A000904703BCF7E700208646EC46002000217B
:1002B000294A9047FEE7884207D0521A05D00378B2
:1002C00001300B700131013AF9D17047884202D0F8
:1002D00002700130FAE770470000012000E00020C2
:1002E00000000120000001208052000000000020DA
:1002F00048000020D4030000D40300004C4C000050
:10030000805200000000002000000020A84C0000E7
:10031000A84C0000A84C0000A84C0000A84C00000D
:10032000A84C0000A84C0000A84C0000805200001F
:10033000C85200004800002048000020480000206B
:10034000AE0E0020B00E0020B00E0020B00E002037
:10035000B02E00209D030000D1300000FEE7FEE734
:10036000FEE7FEE7FEE7FEE7FEE7FEE7FEE7FEE765
:10037000704700BF1048804710484FF0070188437E
:1003800085460F4880470F48016841F470010160BD
:10039000BFF34F8FBFF36F8FFFF732BF0A480B4990
:1003A0000B4A884207D0521A05D0037801300B70EF
:1003B0000131013AF9D170477103000000000120BA
:1003C0004148000088ED00E0A84C0000000000203B
:0403D0000000002009
:1003D4007047000007B5044B0093044A402300F023
:1003E40032F803B05DF804FBF50300004900002077
:1003F4002DE9F84389461446B2B10F4B0F4E03253D
:10040400002743F00108224609EB0701002002F00F
:10041400D9FF0744241A48B933782BB14FF47A40F2
:10042400C047013D02D13570BDE8F8830123337024
:10043400002CE8D1F8E700BFB04C000048000020D1
:10044400704702F0F3BFF0B595B01C461646084657
:100454000D4601F000FF1A9B0D93CDE908640024BA
:100464002346082205A928460A948DF82C400C94AA
:1004740001F00EFF079B0293069B03939DF8143033
:100484008DF8114003F00302012A1DD1BDF8144078
:10049400059EC3F3C203C4F383148DF81030A20085
:1004A40008230EA9284601F0F3FEC6F3952608ABEF
:1004B4000093224602AB0EA9304600F0CBFB28463F
:1004C40001F0CDFE15B0F0BD022AF8D1BDF81640FA
:1004D400C3F3C203A4098DF810300827082C26465C
:1004E40028BF08263B4632460EA9284601F0D0FE16
:1004F400A41B08AB02AA31460EA8374400F00EFC38
:10050400002CEBD1DBE7704707B5044B0093044A9A
:100514004023FFF798FF03B05DF804FB6905000072
:100524008A00002030B50C4D0FCD89B06C460FC445
:1005340095E80F0084E80F00062300226946074867
:10054400009301F03DFF08B100F07CFC044B002255
:100554001A7009B030BD00BFC44C00000000002078
:100564008900002038B50D4B0D4D002018700D4842
:1005740004782D5DD2B21C4665B1043002F064FDEE
:1005840008B100F05FFC084B1A7812B12378002BF5
:10059400FBD038BD0C3002F05DFBF1E7CA0000204F
:1005A400E0060020000000208900002008B508486B
:1005B400084A0378D35C33B1043002F0E1FCBDE8AF
:1005C4000840FFF7AFBF0C3002F0E0FAF7E700BFD6
:1005D40000000020E0060020FFF7A4BF38B50A4D54
:1005E400FFF72FFF0421284600F0A2FA074B01244D
:1005F4005C71FFF7F1FF042105F1100000F098FA97
:10060400034B5C7138BD00BF744C00001400002023
:100614001C000020037813F0040216D003F0030337
:10062400012B03D0022B09D0012070470A680088EF
:100634000232C0F3831002440A60F5E70B68428873
:10064400023303EB92130B60EEE710467047000091
:100654002DE9F04F044685B0851C00200F469046D6
:1006640001F0DAF9454806683E60D0E901321344E6
:1006740001339B1B824600F21C4600F5836900F29D
:100684001447AB421AD30022B8F1000F6FD00523F0
:1006940063F3070264F38912DAF80010DAF8083019
:1006A4000B4003330D444AF823200020CAF80050BD
:1006B40001F0B4F9012005B0BDE8F08F0121304606
:1006C40001F0CEF9484601F0E1F9384601F0DEF9CF
:1006D400DAF80400DAF808B0009000EA0B000330FE
:1006E4000AEB80006946FFF795FF009B50BB0BEABD
:1006F40003020AEB820203F1020CD2680192013375
:1007040003EA0B0B0AEB8B0B02F00302012ACDF870
:1007140000C0DBF80C1022D0022A16D083463846DB
:1007240001F0B7F910B1009BCAF8043059463046BD
:1007340001F096F9DAE901231344DAF800200133D1
:100744009B1A9EE70BEA0300C9E7BDF806309B0934
:1007540003334FEA114B0CEB93030093DFE7BDF82F
:100764000430C3F383134FEA114B6344F5E70623C4
:1007740063F3070264F39F528EE700BF9C010020DD
:100784000B4B0C48FF2210B59A600022C3F81824C2
:10079400C3E90022C3F81424012283F8202401F0C1
:1007A40013FD044610B9044801F07CFD204610BD39
:1007B4009C010020944C0000144D000030B50A4CFC
:1007C40071B10A4A0A49121BD20800239A4201D184
:1007D400002030BD31F82350854202D00133F5E7C3
:1007E400034654F83300F4E74C4C0000744C00000A
:1007F40000000020094B013903EBC000032909D88C
:10080400DFE801F00A02040604207047007970470B
:100814004079704700207047022070474C4C00001C
:10082400034BD3E90030C31A58425841704700BF04
:100834009C0100202DE9F04385B0FFF7F1FF064647
:10084400002840F0F7807C4DC5F81804BFF34F8FA3
:100854006868AC6800902040033005EB800069466E
:10086400FFF7D8FE009B18B1D5F81824002A5FD0F2
:1008740004EA0302991C013305EB8202234005EBD1
:100884008303D268DB68029302F00303022B019214
:10089400009162D1BDF8063068484FEA9318B8F168
:1008A400500FC14628BF4FF0500969F38F1309F167
:1008B4000801ADF8063001F09FFC0746002800F05F
:1008C400A48001F0C8FC01A900230822384601F0E5
:1008D400D5FC009924EA01060136B600B14535D9A4
:1008E4005FFA89F97EB3F6B2A9EB06092140033118
:1008F4005FFA89F4B146524E05EB810108234A465A
:10090400384601F0BBFC36B109F1080322463146F2
:10091400384601F0B3FC009B08F1030803EB98038D
:100924000093D5F81834002B4BD1D5F810445BE074
:100934002A689A4204D86A60304605B0BDE8F0835C
:1009440004EA030088E73E493446D7E721400331EF
:1009540008234A4605EB8101DAE7012B55D1BDF89E
:1009640004303648C3F38311062928BF062161F3F6
:10097400891302318900ADF8043001F03DFC0746CB
:10098400002842D001F067FC0023082201A9384660
:1009940001F074FC0026BDF80420C2F38312B300F6
:1009A400964203F10803BCD200994A1C214003314A
:1009B400009205EB81010422384601F05FFC013608
:1009C400E9E7384601F04BFCFFF72AFF80F001000D
:1009D400C6B2B1E7E3685B7923B1236839461B6883
:1009E40020469847E3681C68002CF3D1384601F090
:1009F40036FC204601F010F8D5F818340BB9009BEA
:100A04006B60002001F00AF8DEE7D5F8104454B911
:100A14000C4B0D480D49C01AC008000440F00200F8
:100A240000F06EF8D0E7236820469B689847E36897
:100A34001C68ECE700267FE79C010020944C000032
:100A4400A80100204C4C00006C4C0000204D00001C
:100A54002DE9F74F284C80460F46924601A9012202
:100A640018469B46D4F80890FFF7F2FD80B3019D29
:100A74000026A91C5E4506EB010233D100211F4864
:100A840000F0CEFF80F310006A1C02EA090204EBB6
:100A94008202000405EA0903033340EA1840D060E7
:100AA40014F8232068F3C50204F8232034F8232023
:100AB40066F3891224F8232054F8232067F39F2235
:100AC40044F8232002F0F80242F0010204F8232043
:100AD40094F820341BB1FFF7ADFE0028FBD103B01E
:100AE400BDE8F08F09EA020204EB82025AF82630CC
:100AF400D3600136BEE700BF9C010020B80500208A
:100B040000231A46FFF7A4BF07B50123019201AAE7
:100B1400FFF79EFF03B05DF804FB07B5CDE90023A2
:100B240002236A46FFF794FF03B05DF804FB00005C
:100B340030B50F49D1F81024002314463CB9C468D9
:100B4400237152B9C1F810042260184630BDE4681C
:100B540025799D4206D02468F0E7D26811682160A7
:100B64001060F2E701330A2BE7D14FF0FF33ECE7D3
:100B74009C010020094A38B50123D2F8104482F8B8
:100B840020341D4604B938BDE3685D7123682046EE
:100B94005B689847E3681C68F4E700BF9C01002089
:100BA400037A052B10B50C460FD0437A23B1084ABB
:100BB4000849204601F00FF90749204601F00BF9D6
:100BC4002046BDE8104001F0FBB8002AF8D0F3E756
:100BD4006B4D00008F4F00008D4D0000C38873B52E
:100BE40004460D4633B1144A00921449144A284667
:100BF40001F0F1F8217A05291CD0637A4BB1A08861
:100C0400FFF7F8FD0F4B104953F82020284601F058
:100C1400E2F8227A0D4BA08853F822600021FFF7F6
:100C2400CDFD0B4903463246284602B0BDE870406C
:100C340001F0D1B802B070BD6B4D0000784D0000DA
:100C4400704D0000384D00008F4F00009C4D000097
:100C5400904D00002DE9F04385B01F460C9D002304
:100C640006460C46904695F80C902B732946384658
:100C7400FFF7B4FFB8F1060F09D8DFE808F0041253
:100C8400181F283340003146284601F0A4F80022FA
:100C940029463846FFF784FF85F80C9005B0BDE877
:100CA400F08322683146284601F095F8EFE7D4E94D
:100CB40000233146284601F08EF8E8E7A368009344
:100CC4003146D4E90023284601F085F8DFE7E368DC
:100CD4000193A36800933146D4E90023284601F028
:100CE4007AF8D4E723690293E3680193A368009335
:100CF4003146D4E90023284601F06DF8C7E763695B
:100D0400039323690293E3680193A3680093314634
:100D1400D4E90023284601F05EF8B8E708292DE954
:100D2400F84F80460E4617461C463AD8002593F8DD
:100D34000C901D7319461046FFF750FFDFF884A08E
:100D4400DFF884B0AE422ED918F805205946204663
:100D540001F041F80135082DF4D11849DFF86CB0E1
:100D6400204601F038F84FF0000A564520D918F80B
:100D74000A507E2D03D8284603F0E6FE00B92E253E
:100D84002A465946204601F026F80AF1010ABAF12A
:100D9400080FEAD1012221463846FFF701FF84F803
:100DA4000C90BDE8F88F5146204601F014F8D1E7C5
:100DB4000349204601F00FF8E7E700BF664D000045
:100DC400644D0000624D00005C4D0000684D000061
:100DD400044B1A5C012393404FF0A042C2F808353B
:100DE400704700BFFB4D000008B50020FFF7F0FF7F
:100DF4000120FFF7EDFF0220FFF7EAFF0320BDE823
:100E04000840FFF7E5BFC20708B501460CD54FF00F
:100E1400A0430322C3F84427C3F84827C3F84C2748
:100E2400C3F85027FFF7E0FF8B070AD54FF0A04324
:100E34000C22C3F83427C3F83827C3F83C27C3F877
:100E4400402708BD1FB50021039001AA44F2010008
:100E5400CDE9011100F004F805B05DF804FB0000D1
:100E640010B572B6FFF786FEFFF7E4FC0028FBD14D
:100E7400104B114C1149E41AE408240444F0010015
:100E8400FFF73EFE0E4B1B68DB0700D500BE0D4985
:100E940044F00200FFF734FEBFF34F8F0A490B4BB7
:100EA400CA6802F4E0621343CB60BFF34F8F00BF04
:100EB400FDE700BF4C4C00006C4C0000FF4D0000EF
:100EC400F0ED00E00B4E000000ED00E00400FA0538
:100ED40030B50C4C94F858500124AC404FF0A04568
:100EE40085B0C5F80C45CDE90001CDE9022369467A
:100EF4000022054801F020FC08B1FFF7A3FF05B06C
:100F040030BD00BF580600201C4E0000F8B5264B2B
:100F140093F82350002D44D146B2002E33DB012434
:100F240083F823405C1900F07F0784F828700F0EC3
:100F340084F829700F0C84F82A7040284FEA11278E
:100F440084F82B7084F82C1027D048280CBF8721F4
:100F5400FF211D44022A85F82D1001D0032A1ED139
:100F6400052283F82420002EA8BF93F824300F4ACA
:100F7400B8BF01230E33A2F11000DBB20621FFF744
:100F8400A7FF0020F8BD022483F8234077249C6245
:100F94004FF47F449C850625C4E79521D9E70122B7
:100FA400DFE71120EEE700BF58060020900600207E
:100FB4002DE9F843534FFE8B40F2D914A6423C4628
:100FC40069D0B6F5ED7F08D2A6B140F2C715AE429E
:100FD40029D00023E383032043E0B6F5F07F4FF0EC
:100FE400000109D0B6F5F67FF3D187F82310197004
:100FF400F98330E0BD8AFD82E68AFF255EB9424A64
:1010040084F8285002230121A2F11000FFF760FFA9
:101014004FF4F67369E0002684F8285003252684EB
:10102400268384F8235044F620674FF0040C2EE006
:10103400268C0136B6B2BE4226840ED80646002956
:1010440056D010F8015BFF2D0DD0FE2D0ED00522D9
:101054001A700023E383022003E0022018700023A7
:10106400E383BDE8F8830139C9B2E7E70139C9B2BE
:101074009142884684F823C028BF90464FF0000E62
:10108400F045E56817D84544A4F81880E56094F85D
:101094002350032DCCD0258B954213D3E38A1A4ACF
:1010A400013BE38201210223A2F11000FFF710FFAC
:1010B4004FF4F07319E016F8019F05F80E900EF145
:1010C400010EDDE7551BADB2F02D28BFF025EBB2C4
:1010D400E2680E480121FFF7FBFEE3682B44E3605E
:1010E400238B1D44258340F2D913E3830120B8E701
:1010F400054A10230121A2F11000FFF7E9FE40F296
:10110400C713F2E75806002090060020800600204E
:10111400164B10B593F822400CB393F82240032CDD
:101124001FD102B3042483F822409C7A9A822407B4
:1011340058BF4902012AC3E90301DA824FF00004CF
:101144004FF001028CBF522051209C83FFF7DEFE3A
:10115400034610B1FFF776FE2346184610BD082358
:10116400FBE71123F9E70723F7E700BF5806002040
:1011740038B5184B154693F822202AB393F8222049
:10118400032A23D125B3052283F822209A7A9D824B
:10119400140758BF49020024012DC3E90301DD826D
:1011A4009C8308D12A465820FFF7B0FE08B1FFF708
:1011B40049FE002038BD02F00702012A0FBF592062
:1011C40001222946D720EFE70820F3E71120F1E7B1
:1011D4000720EFE758060020F0B5324C94F822209F
:1011E40089B00E4602F0FF03002A57D1002957D0D8
:1011F400C278FF2A54D04178FF2951D00778FF2FB5
:101204004ED08078FF284BD002F5E0754FF0A04C0B
:101214004FF0030E84F858204CF825E0012505FA18
:1012240002F2CCF80825FF228DF803204FF606724F
:10123400ADF804204FF000728DF800008DF8021014
:1012440002926946184A19488DF80170ADF80C30BD
:1012540001F050F808B1FFF7F5FDA37A266023F0FA
:101264000F03A372FF2384F82830114B114884F82C
:1012740022500026CDE904351033069332460A2362
:1012840004A9079384F8236001F056FA034610B1C9
:10129400FFF7D8FD3346184609B0F0BD0823FAE736
:1012A4000723F8E75806002001130000184E000039
:1012B400800600201C4E000010B50E4C94F822301D
:1012C400A3B194F82230032B12D10B4801F0F2F9A8
:1012D40094F858304FF0A04203F5E073002042F830
:1012E400230084F8230084F8220010BD0820FCE7C2
:1012F4001120FAE7580600201C4E0000F7B5B44C44
:101304000246E68AC068157C3EB994F85810012359
:101314008B404FF0A041C1F8083594F823707B1E30
:10132400012B6CD8526892F800C0A91FBCF14C0F75
:10133400C9B200F1060303D161B1E91FC9B2C31DEB
:101344001A460D4601E0013DEDB21346BDB9BCF1AC
:101354004C0F03D1013B4FF0010515D194F8223015
:10136400012B46D094F822200123013A8DF8053050
:10137400042A3CD8DFE802F01D1D3B2A2900197815
:10138400FF2902F10102DED0022F34D1012284F8B8
:1013940023201A7812F0FE0F2DD194F824308D4AB0
:1013A4000E33DBB20621A2F10A00FFF791FD03B070
:1013B400F0BD00238DF80430032384F82230FFF7B6
:1013C4007BFF28B1FFF73EFD02E002238DF80430D5
:1013D40094F85820012393404FF0A042C2F80835F6
:1013E400032384F82230236801A89847DFE7032009
:1013F400E8E70023C8E7002284F82320184694F87D
:101404002210C9B24B1E042B00F2D282DFE813F083
:1014140005000A00D0027F01C801022384F82230AB
:101424000023A383A18B0378B1F50E7F00F0D6804F
:101434002CD840F21322914273D0B1F5057F08D223
:10144400002963D0B1F5047F55D00023A38306217E
:101454006DE040F21922914200F0918040F2262280
:101464009142F2D1590740F1EA80A37A012262F352
:101474000203A372238C01339BB2B3F5FA6F238466
:1014840040F29B800023A383022150E040F26122BA
:10149400914200F0E58015D840F24D22914200F0CF
:1014A400CE8040F253229142CFD113F0FC0F3BD1B6
:1014B400D0F801301BBA5B0042BFA37A43F00803A3
:1014C400A37291E040F26B22914200F0DB8040F283
:1014D40071239942B9D101AB10222946FFF768FD67
:1014E40001287FF664AF9DF80410002900F0D58030
:1014F4000023A3831BE0012200214020FFF706FD07
:1015040008B1FFF79FFC40F2132308E001224020BA
:10151400FFF7FCFC08B1FFF795FC4FF40473A383B9
:1015240045E713F0FC0F1ED00023A38304210023FE
:1015340094F858208DF80430032384F822300123D2
:1015440093404FF0A0428DF80510C2F8083521B140
:10155400FFF7B2FE08B1FFF775FC1F4B4FF0804256
:10156400C3F824253FE703224FF4D5714820FFF741
:10157400CDFC08B1FFF766FC40F21923CFE758070A
:1015840007D4A27A032161F3020213F0FC0FA272C2
:10159400CAD100232384A37A03F00703032B0CBFCF
:1015A4004FF0804100210222E920FFF7AFFC08B18F
:1015B400FFF748FC40F22623B1E702220021412034
:1015C400FFF7A4FC08B1FFF73DFC4FF40E73A6E748
:1015D40058060020900600200030004013F0FC0F55
:1015E400A2D1DA073FF546AFA37A03F00703032B32
:1015F4003AD001224FF400715020FFF787FC08B164
:10160400FFF720FC40F2612389E7238C01339BB26E
:10161400B3F5FA6F23843FF635AFA37A03F00703DB
:10162400032B0CBF4FF0804100210222E920FFF779
:101634006DFC08B1FFF706FC40F24D236FE713F091
:10164400FC0F7FF471AF13F00101DED102227A2086
:10165400FFF75CFC08B1FFF7F5FB40F253235EE7AC
:1016640013F0FC0F7FF460AFBB4BE3600122002159
:101674004920A282FFF74AFC08B1FFF7E3FB40F2DE
:101684006B234CE713F0FC0F7FF44EAF013D40F2A7
:1016940071230130EDB2E3611DE794F848309B09F2
:1016A400012B25D00BB1022B2FD194F84F3094F895
:1016B400502094F852009B0003EB921394F84E20B0
:1016C400920202F440620133134494F85120520010
:1016D40002F0060202EBD01294F84D0000F00F0065
:1016E40007380244934063604FF400732381FFE69C
:1016F40094F8513094F85020013303EB022394F80A
:101704004F2003EB02439B02EDE70B46EBE7A38B71
:1017140040F29A2293420DD040F2A226B34238D02E
:10172400002B39D1037813F0FC0F11D1013D0130A6
:10173400EDB2E26101AB4FF400722946FFF738FCC9
:1017440001287FF634AE9DF80410A9B10023A383C9
:10175400032284F8222000220123626184F82320DA
:1017640094F858208DF804308DF8051093404FF00C
:10177400A042C2F8083536E6A38A012B09D9012212
:101784004C20FFF7C3FB08B1FFF75CFB40F2A22338
:10179400C5E60021A183DBE70023A3830621D7E765
:1017A400A28BB2F5397F00F0A8800ED840F2C32393
:1017B4009A4244D040F2D3239A4200F09E80002AF9
:1017C40045D00023A383062117E040F20A339A424E
:1017D4004FF0000300F0C5801FD8B2F53B7FF0D175
:1017E40094F83A2002F01F02052A184600F0998066
:1017F4000B2A01D00D2A26D1A08302238DF80430B0
:10180400032384F82230002384F8233063618DF8A5
:10181400051094F858200123A8E7B2F5487F00F09A
:10182400AB80B2F54C7FCCD1AB42C0F0BB8094F816
:101834002330032B00F0A4800021A183DDE703788B
:1018440013F0FC0F1AD00023A3830421D5E70378F7
:1018540013F0FC0FF9D1A37A03F00703012B0DD089
:10186400A38A012B0AD9012221695920FFF74EFBD3
:1018740008B1FFF7E7FA40F2C32350E6A38AE382F4
:10188400E28AA38A72B9012BD6D9344A4FF6FF53A0
:10189400238502210323A2F11000FFF719FB4FF463
:1018A40048733CE6002222830422012B84F823207F
:1018B4004FF0FF028CBFFC23FE2384F82820274A24
:1018C40084F8293002231946A2F11000FFF700FB27
:1018D40040F2D32323E6C6F50075ADB2F02D28BF40
:1018E400F0250123E9B21D4A3044FFF7F1FA238BB6
:1018F4001D4425834FF4397311E6268BE068B6F551
:10190400007FE8D3154A00F500700323E06001214D
:10191400A2F1100084F82330FFF7DAFA4FF43B7396
:10192400FDE5238494F82330032B22D1238C013347
:101934009BB244F620629342238403D90023A383F9
:1019440002215AE7054A10230121A2F11000FFF7F2
:10195400BFFA40F20A33E2E5A00600209006002018
:101964000133AB42DED2C25C002AF9D0002384F8F2
:101974002330013EE68283E72384032384F8233063
:10198400238C01339BB244F6206293422384D5D83E
:10199400094A10230121A2F11000FFF799FA4FF42C
:1019A4004C73BCE5C25C002A7FF446AF01333BE7CD
:1019B4000320FFF747FAFAE490060020064B93F859
:1019C4002220032A05D093F82200003018BF0120FA
:1019D40070470020704700BF58060020044890F864
:1019E4002230022B00F1040098BF0020704700BF92
:1019F4005806002072B6024A136801331360704718
:101A0400B4060020034A1368013B136003B962B6AD
:101A1400704700BFB4060020FFF7ECBFFFF7F2BF2A
:101A240050E8002F0B4640E8003C9CF0000FF7D133
:101A34001046704750E8003F43EA010240E8002C9A
:101A44009CF0000FF6D11046704750E8002F02EAD0
:101A5400010340E8003C9CF0000FF6D110467047AB
:101A640050E8003F03EB010240E8002C9CF0000F1B
:101A7400F6D11046704750E8003FA3EB010240E85E
:101A8400002C9CF0000FF6D1104670470121FFF79F
:101A9400D1BF0021FFF7D9BF10B590B1D0E9012320
:101AA40001689B1ADBB20A60013BDBB2FF2B0268C0
:101AB40002D10020107110BD11684C1C14600B7011
:101AC400F2E70E20F7E738B504460020FFF7A4FF3D
:101AD400226863681168994213D9481E106011F88E
:101AE400015CE368218A01FB0535A36811791B1A9F
:101AF400DBB2994200D213710020FFF78FFF284612
:101B040038BD0025F8E738B5054600200C46FFF738
:101B140083FF2A681368591C1160E968641A298ACA
:101B2400B4FBF1F41C700020BDE83840FFF776BF29
:101B340019B1012905D00620704702B111700020A7
:101B4400704712B104301060F9E7072070478069CC
:101B5400704708B5FFF732FF0028FBD108BD00002D
:101B6400F0B51B4B1B68834285B007460C4603D077
:101B74001124204605B0F0BD8569FFF71FFF00283A
:101B8400F6D194E8070005F10C0686E80700A28860
:101B94002168A068FFF7ECFA044640B9AB6833B992
:101BA400FFF7D7FF0B4B1B78002B18BF0D24AB6836
:101BB400002BDED0002CDCD04FF48172ADF8042071
:101BC400AA690296039201A938469847D1E700BF53
:101BD400B8060020BC060020F0B51B4B1B688342EE
:101BE40085B007460C4603D01124204605B0F0BD4D
:101BF4008569FFF7E3FE0028F6D194E8070005F1B4
:101C04000C0686E80700A2882168A068FFF780FA1E
:101C1400044640B9AB6833B9FFF79BFF0B4B1B7805
:101C2400002B18BF0D24AB68002BDED0002CDCD0B9
:101C34004FF48172ADF80420AA690296039201A9B7
:101C440038469847D1E700BFB8060020BC060020FC
:101C5400F0B5134F3B68834285B0054603D0112489
:101C6400204605B0F0BD8669FFF7A8FE0028F6D12E
:101C7400FFF722FB044600B93860B368002BEFD0AD
:101C840001228DF80420221C18BF01228DF80520A2
:101C940000220292B269039201A928469847DFE71D
:101CA400B80600202DE9FF410369B3F5007F05461E
:101CB400884629D1164E336843BB87693060B960C2
:101CC400BA6114491430FFF787FA044640B9B8F1F1
:101CD400000F15D1FFF73DFF0F4B1B7883B10D2487
:101CE40000233360B8F1000F0AD04FF480720293DE
:101CF400BB690393ADF80420BB6801A92846984743
:101D0400204604B0BDE8F0810624F9E71124F7E782
:101D1400B8060020211D0000BC0600202DE9FF416B
:101D2400254A4378DFF8948013700278D8F800507D
:101D3400012A0746AC6925D056B22EB1022A35D005
:101D44000320FFF77FF81AE0FFF748FE03682360DB
:101D54004FF400736360D8F800309B699B6873B1DB
:101D64007B788DF80460003318BF01238DF80530AB
:101D7400A36903930296A36801A92846984704B06F
:101D8400BDE8F081A268002AF9D00221003318BF0F
:101D940001238DF8053004F10C030293A3698DF837
:101DA4000410039301A928469047E8E7A268002A93
:101DB400E5D00321EAE700BFBC060020B8060020F6
:101DC400826810B504462AB14369016800699847DE
:101DD4000023A36010BD0EB403B5039921B104AB75
:101DE40001AA019300F074F802B05DF804EB03B0AB
:101DF40070470A2938B504460D4602D10D21FFF774
:101E0400F8FFA3682268591CA160D554D4E90132B3
:101E14009A4204D32046BDE83840FFF7D1BF38BD0D
:101E24002DE9F84F9946DDE90A431746824688466C
:101E34000A460126BA420FD24E4538BF4E4613F029
:101E4400010B01D164B900240125B9F1010F1AD99C
:101E540009F1FF397D43F8E7B2FBF7F20136E9E710
:101E64009B070ED5B9F1000F0CBF30252025A642E3
:101E7400EAD2013C29465046FFF7BBFF002CF6D1BD
:101E8400E1E72025F3E7B8FBF5F39F42E2D9DFF859
:101E94003C90B8FBF5F3504619F8031005FB138882
:101EA400FFF7A7FFB5FBF7F3BD4207D2BBF1000F65
:101EB40002D00CB1A64203D3BDE8F88F1D46E8E773
:101EC40020215046013CFFF794FFF2E7404E00000A
:101ED4002DE9F74F054617468846002900F0308162
:101EE40018F8011B49B92B7B002B00F029812846E7
:101EF40003B0BDE8F04FFFF763BF252940F0C08071
:101F0400002698F800302D2B424608F1010823D012
:101F1400302B24D02B2B25D000242A2B02F10101B5
:101F240023D13B681A1D1B683A601C440A46137887
:101F34002E2B26D101324FF00009104610F8011B58
:101F4400A1F1300CBCF1090F1DD80A2303FB0913BE
:101F5400A3F130090246F0E746F00106D1E746F066
:101F64000206CEE746F00406CBE711F8013CA3F1E4
:101F740030000928DBD80A2202FB0434303C0A462C
:101F8400CBE74FF0000912F8011B01F0FB006828B1
:101F94009046F8D069290ED04AD8582964D006D87A
:101FA40025296DD098F80030002B99D19BE763293F
:101FB40062D06429F6D13A68D2F800A0111D8AEAE9
:101FC400EA723960A2EBEA724FF0010B092A5BDC7A
:101FD400CB4538BFCB462CB1BAF1000F01DB7207F9
:101FE40000D5013CB30702D5B9F1000F04D0F007C6
:101FF40002D4002C4ED10024BAF1000F52DACAF1F7
:10200400000A2D212846FFF7F4FE06F00302022AF7
:1020140005D1B9F1000F02D1002C47D10024CDE93C
:1020240000464B460A2251462846FFF7F9FEB9E717
:1020340073294CD014D87029B4D13B681A1D3A6066
:10204400302128461C68FFF7D4FE78212846FFF784
:10205400D0FE00220823CDE9003221461022E3E716
:1020640075292BD078299DD139680A1D3A60CDE9AC
:1020740000464B46102228E03B681A1D19783A6046
:102084002846FFF7B6FE8DE70A230BF1010BB2FBDE
:10209400F3F29BE7A345AFD220212846013CFFF78A
:1020A400A8FEA6E77107B0D52B21ABE7A345B6D2AE
:1020B40030212846013CFFF79CFEADE73968CDE9A5
:1020C40000460A1D3A604B460A220968ACE73B68A1
:1020D4001A1D3A6016F00106D3F800A020D1BAF117
:1020E400000F03D0504602F07FFD0646B44200D9EB
:1020F400C4B90AF1FF3A1EE028460136FFF779FE1B
:102104001AF806100029F7D1A642BFF44BAF002CF1
:102114003FF448AF20212846013CFFF76AFEF3E76D
:102124000026EDE720212846013CFFF762FEDDE7AB
:102134002846FFF75EFE1AF8011F0029F8D131E79F
:1021440003B0BDE8F08F2DE9F047B0F8069044796C
:10215400D2F800A09DF8208009FB04F4043C064654
:102164000AEB0300A0420F4688BFA4EB030A191D23
:10217400C2F800A0B1FBF9F509FB15114DB9A9EBA3
:102184000104544528BF5446BAF1000F04D1BDE8F8
:10219400F0873668013DF1E704317B197018224657
:1021A400B8F1000F0ED001461846AAEB040A02F05B
:1021B400D0FCD145254436684C464FF0000128BF79
:1021C4005446E1E71946F0E7FFF766BCF8B54679EF
:1021D4000146721E0546002393422D6803D3002452
:1021E400A64202D8F8BD0133F6E70F682846FFF788
:1021F4008AFC01343946F3E72DE9F843068ACD1CFD
:102204000746FFF760FC043E35440446B5FBF6F58B
:10221400F0B14FF48073EDB28380C680013D076056
:1022240081464FF00008A84512D23846FFF74BFC10
:10223400064648B163790133637108F10108C9F8AE
:10224400000007608146EEE72046FFF7BFFF3446F3
:102254002046BDE8F88301210430FFF701BC10B526
:10226400012104460430FFF706FC10F0FF0F04D1EF
:102274002046BDE81040FFF7A9BF10BD1FB503926B
:102284000022009203AAFFF75EFF05B05DF804FB8D
:102294001FB503920122009203AAFFF754FF05B071
:1022A4005DF804FB836800225A609A60C3E9042243
:1022B400DA601A60704700007FB503788DF8043047
:1022C4004368029383688DF80C30C36804930369F0
:1022D4008DF81430054A064B01A853F8213052F802
:1022E4002110984707B05DF804FB00BFC00600202A
:1022F400CC060020F0B50646174616F804CB124A61
:1023040042F82C70114A42F82C30114B0D460FCB79
:1023140085B06C4684E80F002B6800932B798DF808
:1023240005306B798DF80630AB680293002FAB89CA
:10233400ADF80C30074A634608BF3A46214630469A
:1023440000F0D4F805B0F0BDCC060020C006002093
:10235400504E0000BD2200001FB503788DF80030F8
:102364004368019383688DF80830C3680393054A72
:10237400054B684653F8213052F82110984705B0B0
:102384005DF804FBD8060020DC0600201FB50378A6
:102394008DF800304368019383688DF80830C36872
:1023A4000393054A054B684653F8213052F821102F
:1023B400984705B05DF804FBD8060020DC06002031
:1023C400F0B5184B077891F81DE043F82720164B19
:1023D40016460A6943F82720144B03F807E00C4615
:1023E40084460FCC89B06D460FC594E80F0085E88C
:1023F4000F000497BEF1000F0AD0002E0C4A694664
:1024040008BF32460CF1040000F0F8FC09B0F0BD3E
:10241400002E084A694608BF32460CF10C0000F051
:10242400FBFAF3E7DC060020D8060020E0060020D3
:102434005D23000091230000014B1B68184700BF77
:10244400E406002038B50B4B98420D4601D000201D
:1024540038BD0020FFF7E0FA074B1C7914B90122BC
:102464001D601A710020FFF7D9FA002CEFD011205B
:10247400EEE700BF00200040E4060020034B984232
:1024840001BF034B00221A601A71704700200040FC
:10249400E4060020114BD3F8183182B0E3B1104B9D
:1024A40000221A601B680193019B0E4BD97FFF2900
:1024B40007D0987F01228A404FF0A04148B1C1F86B
:1024C4000C2500225A771A72D3E90021064802B07B
:1024D4001047C1F80825F4E702B070470030004007
:1024E40018310040EC060020F40600202DE9F74FD7
:1024F40006796C4F00934FF0240A0AFB06FA07EBA7
:102504000A0B91469BF81C20019780460C46002A32
:1025140040F0C480056864492846FFF793FF00280B
:1025240040F0BE80019B227B43F80A90009BCBF8CD
:10253400043094F800C04FF0A041012303FA0CF3D7
:10254400012A94BFC1F80C35C1F808350CF5E073C5
:102554004FF0010E41F823E06378FF2B1FBF0EFA02
:1025640003FEC1F80CE503F5E07E4FF0030A18BF43
:1025740041F82EA0A17808BF4FF0FF33FF2917BF01
:1025840001F5E07E4FF0FF374FF0A04A4FF0000B0B
:1025940008BF0097019F1CBF00914AF82EB04FF06E
:1025A400240E0EFB0677DFF8FCE087F82010E178B4
:1025B400F977FF2917D094F804A04FF0010B0BFA18
:1025C40001FB4FF0A047BAF1000F5ED0C7F80CB57D
:1025D40001F5E0714FF0030B47F821B0242101FB12
:1025E40006E181F81EA0C5F808C5C5F80C35009BA6
:1025F400C5F81035A368C5F82435637B003318BFCC
:102604000123022A44D0032A45D0012A01D143F0F0
:102614000203C5F85435A379C5F8C035B9F1000FE4
:1026240002D04023C5F804330723C5F80035B9F1B7
:10263400000F20D0D8F8003062791B0B59B2002962
:10264400A8BF01F16044DBB2B8BF03F00F054FEA45
:102654004212B4BF154C04F56144D2B2B4BF625502
:1026640084F8002303F01F03012202FA03F349094B
:102674000F4A42F82130242303FB06E60023737734
:102684000123337703B0BDE8F08FC7F808B59FE79F
:1026940043F00403BDE743F00603BAE70820F1E77B
:1026A4001120EFE7EC0600209924000014ED00E06F
:1026B40000E100E0F8B505791C4C006824236B4365
:1026C400E618E358D3B1030B5AB2520903F01F03BF
:1026D40001212032164F01FA03F347F82230154B3B
:1026E400C0F80833737F4BB14161D0F80431002B3B
:1026F400FBD0242303FB054300225A77242303FB46
:102704000543002693F82030FF2B1FBF03F5E07329
:102714004FF0A042022142F82310C0F80065FFF7F1
:10272400ADFE242303FB05442677F8BDEC06002008
:1027340000E100E0520108002DE9F3410579474E1C
:1027440024236B431446F2180F46517F8046002918
:1027540040F08180F35823B114F0140F04BF012317
:10276400537797E80F004FF0240C0CFB056C0CF129
:102774000C0E8EE80F009CF81F20FF2A08D09CF84E
:102784001E10012393404FF0A042C1B1C2F8083596
:10279400396821B101F06043B3F1005F06D1BA6832
:1027A40082B102F06043B3F1005F0BD0242303FB3A
:1027B400056500236B77102002B0BDE8F081C2F8F4
:1027C4000C35E5E7D8F800307868C3F84415C3F849
:1027D4004805F968C3F834250022C3F83815C3F84E
:1027E4001821D3F818210192019A14F0010218BF9C
:1027F4000122C3F8502514F0020218BF0122C3F8C5
:10280400402522075CBF01221A6124226A43B25880
:10281400B2B9D3F81821002AFBD0242303FB0565A1
:10282400EA7FFF2A07D0A87F012393404FF0A042FC
:1028340018B1C2F80C350020BEE7C2F80835BBE772
:1028440014F004004FF0400202D0C3F80823F2E76A
:10285400C3F80423B0E71120AEE700BFEC06002064
:102864000023435082B043580193019B02B0704748
:102874000A4610B54FF48E71FFF7F2FF136A9168A0
:10288400C95C136A01331362C0F81C1510BD8B694F
:102894000A4610B54FF4847123B9FFF7E1FFD0F86D
:1028A400183510BDFFF7DCFF536AD168D0F818055E
:1028B400C854536A01335362F3E700001FB5012380
:1028C4008DF80030044BCDE90110D3E900126846BD
:1028D400904705B05DF804FB1007002030B54C4A62
:1028E400D2F8043313F4007F85B015464FD0D2F8E4
:1028F4002431002B4BD04FF492711046FFF7B0FFF8
:102904004FF40173C2F80833424B93F8291009B904
:10291400012151603E4902228DF80020D1F8802423
:10292400C1F8802403929A690292DA680192002223
:10293400C3E906226846D3E9001290473448D0F828
:102944001C315BB133490A6A4B699A420A464BD23D
:1029540091F82830002B47D1FFF78AFF2C4AD2F890
:10296400443193B14FF4A2711046FFF779FF294B1C
:1029740093F8291009B1012111609A692AB1002242
:102984009A61586AD968FFF799FF05B030BDD5F848
:1029940004335B07D2D5D5F80831002BCED01D4CBB
:1029A4001B482146FFF773FF636AA2699A422346D4
:1029B400C4D1E269E1684AB12369E3600023606A33
:1029C400A261E3616362FFF779FFB7E794F8292016
:1029D4000AB901226A600E4A4FF40170C2F8080372
:1029E40000229A61586AEEE74FF48E710848FFF7A7
:1029F40037FF51690029B1D00023029191688DF805
:102A04000030019153616846D2E900139847A5E765
:102A140000200040100700202DE9F843564F0479A8
:102A240091462C2202FB0472064692F82A200D4697
:102A3400002A40F09A8051490068FFF703FD804660
:102A4400002840F0958029683368481C0BD04FF06B
:102A5400A04001228A40C0F8082501F5E0724FF039
:102A6400030C40F822C06868421C1FBF00F5E072E6
:102A74004FF0A04C4FF0000E4CF822E0AA6995F8F4
:102A840014C0C3F824256A7DBCF1010F4CEA02028C
:102A9400C3F86C25C3F81405C3F80C151DD1AA6836
:102AA400511C1FBF02F5E0714FF0A0404FF0000C25
:102AB40040F821C0E968481C0BD04FF0A04C01201D
:102AC4008840CCF8080501F5E0704FF0030E4CF88F
:102AD40020E0C3F80815C3F810252C236343FA1823
:102AE400C2F804902A69FA50B9F1000F2AD04FF4C1
:102AF4008E7130682D7FFFF7B3FE30684FF4A271FA
:102B0400FFF7AEFE32681E4BC2F80433120B51B20B
:102B14000029A8BF01F160404FEA4513BABF194824
:102B240002F00F0500F56140DBB2B4BF435580F8F5
:102B3400003302F01F02012303FA02F24909124B87
:102B440043F8212033680422C3F800252C2303FB17
:102B540004730022C3E9062283F829205A61012262
:102B640083F82A204046BDE8F8834FF00808F9E7C7
:102B74004FF01108F6E700BF10070020E12800001D
:102B84008000020014ED00E000E100E0F8B50479F3
:102B940000682D4D0023C0F800352C2303FB04539B
:102BA4005B6873B1294BC0F80833020B53B201219F
:102BB4005B0902F01F0201FA02F22033244941F8B2
:102BC4002320D0F80C65D0F81415D0F80835D0F8C7
:102BD40010254FF0FF37BE42C0F8147518BF06F534
:102BE400E076C0F80C75C0F80875C0F810751EBF03
:102BF4004FF0A0474FF0020C47F826C04E1C1FBFF1
:102C04004FF0A04601F5E071022746F82170511CEF
:102C14001FBF4FF0A04102F5E072022641F8226086
:102C24005A1C1FBF03F5E0734FF0A042022142F883
:102C34002310FFF723FC2C2303FB0454002384F804
:102C44002A306360F8BD00BF100700208402020030
:102C540000E100E02DE9F047214F06794FF02C09FF
:102C640009FB067480466569002D37D16261A16055
:102C740025624FF48E71006884F82850FFF7F0FD48
:102C8400D8F80000012383602146FFF7F1FD636853
:102C9400A14693B9D8F800A0226A63699A4212D374
:102CA400D8F80030D3F81C21002AFBD00122DA60C6
:102CB4002C2303FB0676002373612846BDE8F087C6
:102CC40094F8283043B9DAF81C31002BF8D049467F
:102CD4005046FFF7CDFDDFE70F25E9E71125ECE7C7
:102CE400100700200023435082B043580193019BF6
:102CF40002B070471FB501238DF80030044BCDE9B5
:102D04000110D3E900126846904705B05DF804FB52
:102D14003C0700207FB5374AD2F82461002E48D002
:102D240010464FF49271FFF7DDFF02238DF8003057
:102D3400D2F88034C2F880340393D2F83C3502933D
:102D44002D4BDA6801920022C3E906226846D3E9D2
:102D540000129047274AD2F844317BB14FF4A27154
:102D64001046FFF7BFFF244B996939B10021C3E92D
:102D74000611D968D2F83C05FFF7BCFF1D4AD2F80A
:102D84002031A3B14FF490711046FFF7ABFF1A4BFB
:102D9400596961B1D2F84C150291002299688DF8F5
:102DA400002001915A616846D3E90012904704B0AB
:102DB40070BDD2F81031002BCCD04FF4887110467E
:102DC400FFF790FF0C4BD2F83C0599698842C1D1BA
:102DD400DC69D96864B1D2F8005225F02005C2F844
:102DE40000521A699C61DA60DE61FFF783FFB1E784
:102DF4009C61FAE7002000403C0700202DE9F843DD
:102E04005A4F06799146242202FB0672044692F830
:102E140020200D46002A40F0A28055490068FFF7A3
:102E240011FB8046002840F09D8029682368481CD7
:102E34000BD04FF0A04001228A40C0F8082501F5CC
:102E4400E0724FF0030C40F822C06868421C1FBFB8
:102E540000F5E0724FF0A04C4FF0000E4CF822E069
:102E6400AA6995F814C0C3F824256A7DBCF1010F42
:102E74004CEA0202C3F86C25C3F80C15C3F8140518
:102E84001DD1AA68511C1FBF02F5E0714FF0A0408C
:102E94004FF0000C40F821C0E968481C0BD04FF0FB
:102EA400A04C01208840CCF8080501F5E0704FF0F3
:102EB400030E4CF820E0C3F80815C3F810252423AA
:102EC4007343FA18C2F804902A69FA50B9F1000F52
:102ED40034D04FF4887120682D7FFFF703FF4FF43F
:102EE40090712068FFF7FEFE4FF492712068FFF79F
:102EF400F9FE20684FF4A271FFF7F4FE22681D4B1F
:102F0400C2F80433120B51B20029A8BF01F160408A
:102F14004FEA4513BABF184802F00F0500F56140A7
:102F2400DBB2B4BF435580F8003302F01F02012323
:102F340003FA02F24909114B43F8212023680822BD
:102F4400C3F80025242303FB06730022C3E90622E9
:102F54005A61012283F820204046BDE8F8834FF0EF
:102F64000808F9E74FF01108F6E700BF3C07002016
:102F7400192D00001003020014ED00E000E100E050
:102F8400F8B5047900682D4D0023C0F800352423DA
:102F940003FB04535B6873B1294BC0F80833020B7D
:102FA40053B201215B0902F01F0201FA02F220333D
:102FB400244941F82320D0F80C65D0F81415D0F832
:102FC4000835D0F810254FF0FF37BE42C0F80C7515
:102FD40018BF06F5E076C0F81475C0F80875C0F897
:102FE40010751EBF4FF0A0474FF0020C47F826C0E3
:102FF4004E1C1FBF4FF0A04601F5E071022746F8B2
:103004002170511C1FBF4FF0A04102F5E07202264F
:1030140041F822605A1C1FBF03F5E0734FF0A04231
:10302400022142F82310FFF729FA242303FB045456
:10303400002384F820306360F8BD00BF3C07002003
:103044001003020000E100E001F06043B3F1005F0F
:103054002DE9F041074632D11B4B0679242505FBA7
:10306400063598466C6964BB6A61A96000684FF4D0
:103074009071FFF737FE4FF4AC713868FFF732FEFA
:103084003B686A69A968C3F84415C3F84825012256
:103094009A606A6862B9D3F82021D3F8584152B9CA
:1030A400002CF8D00F24242303FB0686002373612D
:1030B4002046BDE8F081002C18BF0F24F3E710244C
:1030C400F6E71124F4E700BF3C0700202DE9F7439D
:1030D4000120FDF798FE00210846FDF751FB08B1D9
:1030E400FDF7B0FEFDF77AFA574D584B5849ED1AE3
:1030F400ED082D0445F003042046FDF701FDFDF71E
:1031040099FB0028FBD101215248DFF8A881DFF8A0
:10311400A89100F0D9FA50492046FDF7F1FC0326A6
:10312400324641462046FDF7EFFC002000F092F9BC
:103134004946024607462046FDF7E6FC013E1FD0FD
:10314400002FEDD1454B46485F69B8474268444873
:103154004FF48016B6FBF2F6B84742490268B2FB58
:10316400F6F22046FDF7D0FC3F492046FDF7C8FCA7
:1031740001223E493E4801F0AFF848B13D4902E022
:10318400002FDFD03C492046FDF7BAFC20BFFDE705
:103194003A492046FDF7B4FC39493A4801F0C0FAEF
:1031A40058B9394EDFF8DC9006F10908364948462B
:1031B40001F0E9FA18B13549E5E73549E3E7737AEF
:1031C40045F0050723BB29493846FDF799FC3149E9
:1031D4002046FDF795FC33222F49304801F0A2F830
:1031E40048BB2F4E2D4FDFF8D4804FF47A7501ABD6
:1031F40010223146384601F078F9F0B129492046C9
:10320400FDF77EFC013DF2D1244801F07CFABDE7D4
:10321400337ADB0608D5424623493846FDF774FC69
:10322400737A002BC2D1CEE7434632681F49384631
:10323400FDF773FCF4E71E49A5E7019A41462046D1
:10324400FDF762FCDEE700BF6C4C00004C4C000054
:10325400904E000024000020A74E0000284E0000DD
:10326400744E0000E34E0000F34E00008F4D00004A
:10327400CC090020064F0000C74E0000144F000088
:103284002A4F000060070020B4090020464F0000C8
:103294002C4F00005D4F00007A4F00008C07002087
:1032A400C54F0000D64F0000844F0000924F00002D
:1032B4009B4F00002A500000C44E0000E64F00005F
:1032C4000369C1688B429DBF8268D21802F1FF3244
:1032D40003F1FF3394BF501A581A70472DE9F04197
:1032E400D0E9027405463E1B406896422044884655
:1032F400144404D901F02DFCEC60BDE8F0813246A1
:10330400E41B01F026FC224608EB06016868F1E79D
:103314002DE9F843C5680646894617464FF000086C
:103324003469B3687068A54228BFE418013C621B85
:103334005C1BBC4228BF3C46944228BF1446494605
:103344002844224601F005FCB3682544AB4208BF7B
:1033540000253F1BA044A144F560E1D14046BDE8EF
:10336400F883000010B5114C114AA2610223C4E98C
:103374000433104BE361A2644FF400730E4A2362DA
:10338400E264002310220D49A362E01D6362E3623C
:10339400A3656365E365226501F004FC08492046E2
:1033A40001F000FC2023A37110BD00BF180C002005
:1033B40008500000A00C0020900C002011500000C8
:1033C40015500000F8B5184C182300FB033503FB17
:1033D40000402544C46A012C0F46164611D024B17E
:1033E400022C1BD000242046F8BD2846FFF768FFB6
:1033F400B042F8D3324639462846FFF76FFF3446C9
:10340400F1E72846FFF75CFF8642344628BF0446AE
:10341400224639462846FFF761FFE4E72846BDE81F
:10342400F840FFF775BF00BF180C0020FFF79ABFE4
:103434000B78032B09D8054B087A1A680C2300FB78
:1034440003234A781A7200229A727047A00E002051
:1034540020BF704770B5244B1B788342024640D985
:10346400224E00EB4005AD00316848594B19002845
:1034740037D0597AC90702D4587AC0B270BD596896
:1034840009B91B49596001219972036819491B68DC
:10349400984728B133681D44687AEEE75B6898471B
:1034A40033682B449A7A002AF8D1134A134C1449EE
:1034B400A41AE408240444F003041A7A2046FDF70D
:1034C40023FB33682B441B7A002BE3D10D492046A0
:1034D400FDF716FB33682B445A7A02F0FE025A7247
:1034E400D8E70320CAE700BFA40E0020A00E0020E6
:1034F40055340000353400004C4C00006C4C000086
:103504001C5000002D500000074B1B78834281BFE4
:10351400064B1B6800EB400003EB800086BF407A3B
:10352400C0B20120704700BFA40E0020A00E0020EE
:10353400F0B516461B4A1278824285B02ED9002B6C
:103544002CD0194F00EB400084003D682A192D59F6
:1035540035B3507AC00723D4CDE901630123039125
:1035640093722B6828465B69984703689E4202D38E
:10357400012005B0F0BD2B6801A99B682846984737
:103584000028F5D13B6823449A7A22B9187A00308E
:1035940018BF0120EDE75B689847F3E70420E8E7EC
:1035A4000320E6E7A40E0020A00E0020F0B5164686
:1035B4001E4A1278824285B032D9002B30D01C4F7B
:1035C40000EB400084003D6828192D59002D29D0B6
:1035D400427AD20726D4427A520725D4CDE9016330
:1035E4000123039183722B6828465B69984703681B
:1035F4009E4202D3012005B0F0BD2B6801A9DB680F
:10360400284698470028F5D13B6823449A7A22B982
:10361400187A003018BF0120EDE75B689847F3E79C
:103624000420E8E70320E6E70220E4E7A40E0020F4
:10363400A00E002073B5224B1B7883420D4614461E
:103644003AD901291DD029B1022928D001252846BB
:1036540002B070BD012300EB40001A4E8DF8073014
:1036640084003368185903680DF107021B690021AF
:10367400984708B11128EAD19DF80730002BF0D102
:10368400E5E7104B00EB40001B6853F82000A8B19D
:1036940003685B699847036823600025D7E7094BF3
:1036A40000EB40001B6853F8200038B103685B69E5
:1036B400984743682380F0E70425C8E70325C6E755
:1036C400A40E0020A00E0020024B1860024B1970BB
:1036D400704700BFA00E0020A40E0020428843784B
:1036E400007843EA022340EA032070470B0A017082
:1036F40043700B0C090E8370C1707047024400F8CC
:10370400011B9042FBD1704743690239023B8B4253
:1037140083BF4389806A01FB03000020704702686D
:1037240010B552B111460B4611F8014B202C0CD99F
:103734003A2CF8D1511C8B4202D04FF0FF3005E0F7
:103744001278302AF9D101330360002010BD38B556
:103754000D46044618B9002309202B6038BD0368C0
:10376400002BF8D01A78002AF5D0D98882889142A3
:10377400F1D15878FFF7C8FE10F00100EBD12368AF
:10378400EBE701380A4411F8013B00F8013F91428C
:10379400F9D17047CA7E8B7E032843EA022301BF16
:1037A400487D0A7D42EA002243EA024318467047F4
:1037B400C2F307238A76CB760378032B01BF120C5E
:1037C4000A75120A4A757047F8B5C4690023651E64
:1037D40018462E2615F8012F202A00F101000AD0E0
:1037E400052A08BFE522092802BFCF1801337E72DB
:1037F400CF1801337A720B28ECD10B4400225A7291
:10380400E37A0B7204F11C00FFF768FF086004F10F
:103814001600FFF763FFC880000C8880F8BD2DE90F
:10382400F041C56A00F13008044601232A464146A6
:103834004078FFF7BBFE0646A8B9236AA269E07088
:10384400EB1A934202D2A778012F02D83046BDE882
:10385400F081A36960781D442A4601234146FFF79D
:10386400A5FE013FF0E70126F0E7C3780BB1FFF7AF
:10387400D6BF1846704738B5C36A8B4205460C4616
:1038840015D0FFF7F2FF034678B90123224605F16C
:1038940030016878FFF74CFE002818BF4FF0FF3462
:1038A4000346EC620CBF03460123184638BD0023CF
:1038B400FBE70000002310B5C3704FF0FF33C36271
:1038C4000446FFF7D8FF014630BB94F82F2294F842
:1038D4002E3243EA02234AF6552293421ED194F82B
:1038E4003030E92B05D0236B0E4A03F0FF139342CB
:1038F40016D104F16600FFF7F1FE0B4B20F07F4078
:10390400984207D004F18200FFF7E8FE074B984283
:1039140018BF0221084610BD0421FBE70321F9E783
:103924000221F7E7EB00900046415400464154332E
:103934002DE9F043002385B00B600F461546FFF7D1
:10394400EEFE061EC0F231819B4B53F82640002C3C
:1039540000F02D813C60237805F0FE056BB16078A2
:10396400FFF7D2FDC10708D41DB110F0040500D043
:103974000A25284605B0BDE8F0830023F0B2237081
:103984006070FFF767FDC20700F113810DB14307B3
:10399400EED400212046FFF78DFF022840F0EB8093
:1039A4006F4604F5FB7104F236263D4611F8040C0B
:1039B40010B10846FFF792FE10318E4245F8040B11
:1039C400F4D1002657F8045B002D00F0CB80294683
:1039D4002046FFF76FFF012800F2C58094F83C20D1
:1039E40094F83B3043EA0223B3F5007F40F0C780EC
:1039F40094F8473094F8466056EA032604D104F15B
:103A04005400FFF76BFE064694F84010A6614B1E67
:103A1400012BA17000F2B38094F83D70BBB26381B6
:103A2400002B00F0AC807B1E3B4240F0A88094F851
:103A3400423094F8418048EA03280FFA88F81FFAC4
:103A440088F919F00F0FA4F8089040F0988094F8C2
:103A5400443094F8430050EA032003D104F15000A9
:103A6400FFF73CFE94F83F2094F83E3053EA0223DB
:103A740000F0858006FB01FC03EB191262449042BE
:103A84007DD3801AB842B0FBF7F178D34FF6F570C6
:103A9400814278D840F6F577B9428CBF02270127D6
:103AA40002312B442A44032F6161E5612362A2623F
:103AB4006BD194F85B2094F85A3043EA022348EA25
:103AC40003080FFA88F3002B59D104F15C00FFF7C7
:103AD40005FE6062890001F2FF11B6EB512F4ED34F
:103AE4004FF0FF33C4E90333032F4FF080032371F6
:103AF4002FD194F8612094F8603043EA0223012B1B
:103B040027D1691C2046FFF7B6FE10BB94F82F227C
:103B140094F82E32207143EA02234AF65522934246
:103B240017D104F13000FFF7D9FD244B984210D18E
:103B340004F50570FFF7D2FD214B984209D104F535
:103B44000670FFF7CBFD206104F50770FFF7C6FD93
:103B5400E0601C4A2770138801339BB21380E38012
:103B6400002506E703200136042E7FF42BAF04283A
:103B740005D10125FDE60428FBD0012801D90D2536
:103B8400F7E600252AE703278AE7B9F1000FF6D004
:103B94006344022F63624FEA41031BBF5B1801F0C9
:103BA4000101194601EB530195E70B25E1E60C25CC
:103BB400DFE60325DDE600BFA80E00205252614176
:103BC40072724161AC0E002001292DE9F0470546CF
:103BD4000C46174672D943698B426FD90378022B7E
:103BE4003FD0032B50D0012B68D101EB5108016A5F
:103BF40001EB5821FFF73FFE064638BB05F13009BB
:103C040008F1010AC8F3080814F001041FBF19F8E9
:103C1400083003F00F023B0103F0F00314BF134319
:103C2400FBB209F80830296A0123EB7001EB5A2131
:103C34002846FFF720FE064640B9CAF3080A44B1F5
:103C4400C7F3071709F80A700123EB703046BDE883
:103C5400F08719F80A30C7F3032723F00F031F4333
:103C6400F0E7016A01EB1421FFF705FE0646002880
:103C7400ECD1640005F1300304F4FF741A191F55E4
:103C8400C7F307275770DFE7016A01EBD411FFF789
:103C9400F2FD06460028D9D1A40005F1300304F44E
:103CA400FE741C442046FFF719FD27F0704700F00E
:103CB400704139432046FFF719FDC5E70226C5E7E1
:103CC4000129F8B505460C4652D9436999424FD2A9
:103CD4000378022B29D0032B38D0012B48D101EBD8
:103CE4005106016A01EB5621FFF7C5FD10B14FF0F3
:103CF400FF30F8BD771C296AC6F308062E4401EB91
:103D04005721284696F83060FFF7B5FD0028EED11C
:103D1400C7F308073D44E30795F8300046EA00205E
:103D24004CBF0009C0F30B00E3E7016A01EB142167
:103D3400FFF7A1FD0028DAD16400303504F4FF74E4
:103D44002B19285D5B7840EA0320D2E7016A01EB76
:103D5400D411FFF790FD0028C9D1A40005F130006B
:103D640004F4FE742044FFF7B9FC20F07040C0E76F
:103D74000120BEE72DE9F041804605680F4671B980
:103D8400EE68EEB16B69B34298BF012634466B69A5
:103D94000134A34217D8012E14D8002406E0284683
:103DA400FFF78EFF0128044603D801242046BDE80E
:103DB400F081431C30D06B698342F7D83E46E5E777
:103DC4000126E3E702242146D8F80000FFF778FF34
:103DD40030B10128E9D001301ED0B442D7D1DCE79C
:103DE4004FF0FF3221462846FFF7EEFE90B957B94F
:103DF400D5E90432023A9342EC6010D32B7943F0B4
:103E040001032B71D2E7224639462846FFF7DCFE30
:103E14000028EDD00128C8D14FF0FF34C6E7013B9C
:103E24002B61EBE7F8B50D46012D074611460468F2
:103E34002BD96369AB4228D92AB14FF0FF3220460F
:103E4400FFF7C2FE30B929463868FFF739FF064646
:103E540008B90020F8BD012817D0431C17D0002250
:103E640029462046FFF7B0FE0028F3D1D4E90432F6
:103E7400911E8B4205D201332361237943F0010360
:103E84002371B2423546DED8E3E70220E2E701209F
:103E9400E0E7F8B50446FFF7E8FC0546002842D100
:103EA4002378032B37D12779012F34D104F130063D
:103EB40001464FF400723046FFF720FC552384F886
:103EC4002E32AA2384F82F3252234122722184F8FD
:103ED400303084F83130612384F8323084F8332070
:103EE40084F8162284F8173284F8141284F8151210
:103EF40004F506702169FFF7F9FBE16804F5077022
:103F0400FFF7F4FBE26960780132E2623B46314636
:103F1400FFF74CFB2571002211466078FFF78AFBFE
:103F2400003018BF0120F8BD826838B5002305466B
:103F3400046803619AB92378022B01D9636A6BB9C7
:103F440023890BB9022038BD636AAB61AB696A612E
:103F5400002BF7D03034EC610020F4E71A46638973
:103F640063B911462868FFF7ABFE431C02460BD029
:103F74000128E7D963699842F3D3E3E71146204661
:103F8400FFF7C2FBA861E1E70120DCE703692DE943
:103F9400F04703F12009836905468A4693B1B9F5D0
:103FA400001F0FD2C9F308080468B8F1000F4DD1FF
:103FB40041690133836139B92389B3EB591F45D86A
:103FC4000023AB6104200BE06789013F17EA5927FE
:103FD4003CD12046FFF774FE0128064602D8022091
:103FE400BDE8F087421C01D10120F9E763698342EF
:103FF40026D8BAF1000FE3D069692846FFF7BAFE64
:104004000646002835D00128E9D0431CECD02046D0
:10401400FFF72BFC01460028E6D14FF4007204F1AF
:104024003000FFF76BFB31462046FFF76DFB4FF086
:10403400010AE06263899F420FD3E36ADF1BE762F0
:104044006E6131462046FFF75FFBA861303444447B
:10405400C5F81090EC610020C2E784F803A0204664
:10406400FFF7DDFB0028BFD1E36A01330137E362C8
:10407400E0E70720B4E700002DE9F04107680446B3
:104084000D4611F8013B2F2BFAD05C2BF8D00023FE
:10409400A3602B781F2B53D904F120060B22304642
:1040A4002021FFF72BFB002210464FF0080C2B5C5D
:1040B400202B00F1010108D92F2B01D05C2B49D111
:1040C400685C2F2844D05C2842D00D44002A5AD082
:1040D40094F82020D4F80080E52A04BF052284F84F
:1040E4002020212B34BF0423002384F82B302046C6
:1040F400FFF71AFF00286BD1A1694046FFF7BBFB0D
:10410400002865D1E3691A78002A6CD0DA7A02F0C3
:104114003F02A271D87A10F008000CD103F10B0C05
:10412400314613F8012B11F801EB9C45A2EB0E026A
:104134004CD0002AF5D000212046FFF727FFD9E70D
:10414400802384F82B302046BDE8F041FFF7ECBE15
:104154000131B5E72E2B5AD0944514D903F17F0EC3
:104164005FFA8EFEBEF11E0F0FD903F1200E5FFA27
:104174008EFEBEF11C0F08D9DFF8A0E01EF8010B7B
:10418400D8B18342FAD106202BE015F801E0AEF154
:1041940040013E2900F1020003D98EF080017C2900
:1041A400F1D80CF1FF318A42EDD2511CB35406F818
:1041B40001E002320146084679E7A3F161001928BB
:1041C4009CBF203BDBB2B3540132F4E7002AB2D1E6
:1041D40094F82B3048B1042803D113F0040F08BF1E
:1041E4000520BDE8F0810420F2E75A07F9D4A37949
:1041F400DB060AD523693878C3F3080307F13001D5
:104204001944FFF7C7FAA06048E70520E9E7BCF1C5
:104214000B0FB8D008224FF00B0CCCE73050000045
:1042240038B5044605680420A16909B9A8B11CE0A1
:104234002846FFF720FBC0B9E3691A78C2B1DB7ADC
:10424400E52A03F03F03A37109D02E2A07D00F2BD0
:1042540005D023F02003082B01D0002038BD002115
:104264002046FFF793FE0028DED00023A361F5E784
:104274000420FAE770B505460668FFF755FE0446C4
:1042840028BBA9693046FFF7F6FA0446F8B9EB698A
:104294001B78E52B14D1A9693046FFF7ECFA0446E4
:1042A40060B901462022E869FFF728FA0B2205F1DC
:1042B4002001E869FFF765FA0123F370204670BD19
:1042C400002BE8D001212846FFF760FED7E7042C35
:1042D40008BF0724F2E700001FB5CDE9001003A8CA
:1042E40003911446FFF71BFA011E15DB0C4B53F820
:1042F400210008B100220270019808B10022027066
:1043040043F8210030B1012C08D1002201A96846EC
:10431400FFF70EFB04B010BD0B20FBE70020F9E70C
:10432400A80E00202DE9F0478EB0154601910446F1
:10433400002800F0D88002F03F06324602A901A806
:10434400FFF7F6FA0746002854D1029B019903931C
:1043540003A8FFF791FE20B99DF93730002BB8BFB1
:10436400062015F01C0F00F09E80002849D0042878
:1043740040D103A8FFF77EFF00283BD146F0080692
:104384000A9BDDF8089000252121482219745A74EB
:104394009D73DD730A9B19765A769D75DD750A9BAC
:1043A4002022DA72DDF828A099F800005146FFF7C0
:1043B400F1F92A4680464846FFF7FAF90A9B1D7729
:1043C4005D779D77DD77029B0122DA70B8F1000FEB
:1043D40020D02A46414603A8D3F82C90FFF722FDAB
:1043E40040B949460298FFF746FA029A08F1FF33AA
:1043F400D36078B100232360074638460EB0BDE889
:10440400F0879DF8123013F0110F56D1680764D469
:104414002907B5D4029DDDF82880EB6A2362C4F82D
:10442400248028783107414648BF46F04006FFF70C
:10443400B1F9A06008F11C00FFF750F904F1280855
:10444400EB88E06000214FF400722560A38026749D
:104454006174E16161614046FFF750F9B206CCD561
:10446400E568002DC9D0029BA1685E89656176026A
:10447400AE4224D30020A1610028BBD1C5F30803B8
:10448400002BBAD0029E3046FFF73EF948B300EB4A
:104494005522E261012341467078FFF749F800286C
:1044A400ABD00120A6E70028A4D19DF81230DA068B
:1044B40015D4AD07AED5D807ACD507209AE7206848
:1044C400FFF7FEFB01280146A5EB060503D9431CB3
:1044D400CED10120CFE70220CDE708208AE70420CF
:1044E40088E7022086E7092787E72DE9F04F9B46F6
:1044F40085B000238946CBF8003003A9044617464B
:10450400FFF725F90646002840F08B80667C002ED4
:1045140040F08780237C9A0740F1AC806369FB42BA
:1045240000D3DF4304F1280A60E0A16970E00128A8
:1045340002D10226667474E0431C01D10126F9E716
:10454400A368A06103B9A06094F91030002B0CDAC1
:104554000398E269407801235146FFF727F80028C1
:10456400ECD1237C03F07F032374039BA1690093A4
:104574001846FFF7C9F80028DBD0019BB7F5007F88
:1045840003EB000851D3009B019A5B8900987D0AD4
:104594002A449A4288BF019A407888BF9D1A2B46C4
:1045A40042464946FFF702F80028C7D1E169A1EB6A
:1045B4000801A9420AD24FF4007209EB4121504686
:1045C400FFF7DFF8237C03F07F0323746D02636934
:1045D400E2682B4463619A422CBFE260E360DBF83B
:1045E40000302B44A944CBF800307F1BAFB1636982
:1045F400C3F3080262BB039A5289013A12EA5322B6
:104604000192A1D1002B90D1A06800288FD101463E
:104614002046FFF7AFFB002889D1237C43F04003F9
:104624002374304605B0BDE8F08FE36943450DD0EF
:10463400E26863699A4209D90098012342465146C7
:104644004078FEF775FF00287FF478AFC4F81C802B
:104654006069C0F30800C0F50075BD4228BF3D463F
:104664002A4649465044FFF78CF8237C63F07F03C5
:104674002374ACE70726D4E773B501A90446FFF712
:1046840066F80546002839D1237C13F0400535D05F
:104694001B060CD50198E2694078012304F1280136
:1046A400FEF784FF68BB237C03F07F032374216A35
:1046B4000198FFF7E0F8054600BB666AF37A43F019
:1046C4002003F372A26820683146FFF771F8E168AD
:1046D40006F11C00FFF70AF8212333760198B5751B
:1046E400482373760123F575B574F574C370FFF729
:1046F400D0FB237C23F0400305462374284602B0F4
:1047040070BD0125FAE713B50446FFF7B5FF28B9D4
:1047140001A92046FFF71BF800B9206002B010BDC4
:104724001FB50446019148B3002203A901A8FFF76D
:10473400FFF870B9039B236001992046FFF79CFCA6
:10474400F0B994F92B30002B0CDBA379DB0603D4EE
:104754000520002323600FE0039BE1691878FFF72D
:1047640019F8A060039BDB88A3802046FFF7DCFBDD
:104774000428EDD00028ECD104B010BD0920FBE7DB
:104784000428E5D0E5E737B50D4601A90446FEF750
:10479400DEFF18B920461DB9FFF7C6FB03B030BDD4
:1047A400FFF73EFD10F0FB03F8D16B72A3691BB158
:1047B40029462046FFF708F800212046FFF7E6FBCC
:1047C400042808BF0020E9E70C4B1B78062B10D106
:1047D4000B4B1B681A070CD10A4B186800F0F00346
:1047E400302B08D000F0E000A0F1400358425841BB
:1047F4007047002070470120704700BFE00F00F0B1
:10480400E40F00F0E80F00F0094B1B78062B0CD1E5
:10481400084B1B681A0708D1074B186800F0F00012
:10482400A0F130035842584170470020704700BF40
:10483400E00F00F0E40F00F0E80F00F008B5FFF718
:10484400C3FF28B17D4B7E4A1B68C3F30423136066
:10485400FFF7DAFF10B17B4B7B4A1A60FFF7B4FF16
:1048640028B17A4B7A4A1B68C3F342331360FFF7CB
:10487400CBFF20B1774AD36823F08073D360FFF76E
:10488400A3FF40B14FF080430022C3F80C21C3F8CA
:104894001021C3F83825FFF7B7FF10B16E4B032280
:1048A4001A60FFF7B1FF40B16C4B05221A60012278
:1048B4009A6700229A603F225A60694B1B78062B44
:1048C40050D1684B1B6819074CD1674B1B6803F028
:1048D400F003502B46D14FF08052644BD2F80414AD
:1048E400C3F82015D2F80814C3F82415D2F80C1410
:1048F400C3F82815D2F81014C3F82C15D2F81414E0
:10490400C3F83015D2F81814C3F83415D2F81C14AF
:10491400C3F84015D2F82014C3F84415D2F824146F
:10492400C3F84815D2F82814C3F84C15D2F82C143F
:10493400C3F85015D2F83014C3F85415D2F834140F
:10494400C3F86015D2F83814C3F86415D2F83C14CF
:10495400C3F86815D2F84014C3F86C15D2F844248F
:10496400C3F87025FFF730FF28B1414B414A1B685B
:1049740003F04F031360FFF727FF48B14FF0804364
:10498400D3F80024D20744BF6FF00102C3F8002417
:10499400394B1B68062B08D1384B1B68062B01BF0B
:1049A400374A136843F480631360364AD2F8883078
:1049B40043F47003C2F88830BFF34F8FBFF36F8F97
:1049C4004FF01023D3F80022002A03DBD3F804327B
:1049D400002B2FDA2C4B0122C3F80425D3F8002432
:1049E400002AFBD04FF010221521C2F80012D3F890
:1049F4000024002AFBD04FF010231522C3F8042210
:104A0400214B1A46D3F800140029FBD00021C3F827
:104A14000415D2F80034002BFBD0BFF34F8F194993
:104A24001A4BCA6802F4E0621343CB60BFF34F8FA2
:104A340000BFFDE7164B174A1A6008BD2403001097
:104A44004035014074C007400DF0ADBA4402001077
:104A54003C050040F0ED00E0A00500401056004089
:104A6400E00F00F0E40F00F0E80F00F000C0004099
:104A740058020010E40E0040300100103401001010
:104A84003C17004000ED00E000E001400400FA059E
:104A9400300000200090D0037F2805D8034B185C19
:104AA400034B5B5C18407047002070474050000087
:104AB400C0500000A0F16103192B98BF2038704743
:104AC400A0F14103192B98BF203070477F2805D8E7
:104AD400034B185C034B5B5C184070470020704725
:104AE40040500000C0500000A0F16103192B98BF92
:104AF40020387047A0F14103192B98BF203070472C
:104B04007F299ABF017001206FF02E0070475AB1BF
:104B14000A787F2A0AD800B102600021196059601E
:104B2400501A18BF01207047002070476FF02E0004
:104B34007047000008B5034B5B689B681B68984787
:104B440008BD00BF3400002008B50921FFF7F2FFBB
:104B540008BD844640EA010313F0030F18D18446CC
:104B6400202A0BD32DE9F007B1E8F807A0E8F807ED
:104B7400A2F12002202AF7D2BDE8F007042A07D3C5
:104B840051F8043B40F8043BA2F10402042AF7D292
:104B9400002A05D011F8013B00F8013B013AF9D194
:104BA40060467047024610F0030F16D111F0030F50
:104BB40013D12DE9F0004FF001374FF0803351F855
:104BC400044BA4EB070525EA04051D4002D142F875
:104BD400044BF4E7A1F10401F0BC11F8013B02F825
:104BE400013B002BF9D1704700F1010110F0030FD4
:104BF40011D010F8012B002A23D010F0030F0AD093
:104C040010F8012B002A1CD010F0030F03D010F869
:104C1400012B002A15D02DE970004FF001324FF01E
:104C2400803350F8044BA4EB020525EA04051D402B
:104C340000D1F6E7A0F1040070BC10F8012B002AA3
:084C4400FBD1A0EB0100704759
:104C4C00604E000000000000644E000000000000F8
:104C5C00694E0000000000006E4E000000000000D5
:084C6C00314D000000000303BC
:104C7400B84C000000000000014D000014000020AA
:104C8400E44C000000000000F04C00001C00002078
:104C9400CC000020940100209C010020D4000020BE
:044CA40018000000F4
:104CA80000000000000000000338FDD87047000035
:104CB800D903000045040000D5030000FFFFFFFFF3
:104CC800FFFFFFFFFFFFFFFFFFFFFFFF00000000E8
:104CD800000000000000D601060100000D050000DC
:104CE800B10500000B050000756172745F6C6F6799
:104CF8005F6261636B656E64007274745F6C6F678A
:104D08005F6261636B656E6400000000C00500208F
:104D18007F000000400600204261636B656E64738B
:104D280020666C757368656400617070000000002F
:104D38006B4D0000B04D0000704D0000B84D0000F4
:104D4800C04D0000C84D0000D04D0000D84D0000F7
:104D5800E04D0000202530327800202020007C0023
:104D68002563001B5B306D001B5B313B33316D00ED
:104D780025734C6F67732064726F707065642028A8
:104D880025642925730D0A003C25733E2025733AB6
:104D98002000000000000000054E0000E84D000063
:104DA800F04D0000F54D00001B5B313B33306D00CA
:104DB8001B5B313B33326D001B5B313B33336D0082
:104DC8001B5B313B33346D001B5B313B33356D006E
:104DD8001B5B313B33366D001B5B313B33376D005A
:104DE8007761726E696E6700696E666F00646562EE
:104DF80075670011121314466174616C2065727234
:104E08006F720053797374656D20726573657400F1
:104E18000000000000300040000000000100000019
:104E2800A91C0000551C0000DD1B0000651B0000CC
:104E3800351B0000531B0000303132333435363710
:104E48003839414243444546FFFFFFFF0006FF0053
:104E58000000004000000000505253005350494DDC
:104E6800005541525400554152544500284E000007
:104E7800F84F0000FF4F0000035000000002000040
:104E880017181916FC0B0020464154465320657824
:104E9800616D706C6520737461727465642E00496D
:104EA8006E697469616C697A696E67206469736B8D
:104EB80020302028534443292E2E2E0025780044E4
:104EC80069736B20696E697469616C697A61746968
:104ED8006F6E206661696C65642E00436170616362
:104EE8006974793A202564204D42004D6F756E74BF
:104EF800696E6720766F6C756D652E2E2E004D6F6E
:104F0800756E74206661696C65642E000D0A204C0C
:104F1800697374696E67206469726563746F727906
:104F28003A202F004469726563746F7279206C6946
:104F38007374696E67206661696C656421004469F1
:104F4800726563746F727920726561642066616945
:104F58006C65642E0057726974696E6720746F20DF
:104F680066696C65206D757369632E4D50332E2EFE
:104F78002E006D757369632E4D5033002020203C40
:104F88004449523E20202025730025396C75202085
:104F9800257300556E61626C6520746F206F7065B3
:104FA8006E206F72206372656174652066696C6536
:104FB8003A206D757369632E4D50332E005344208B
:104FC80063617264206578616D706C652E0057723C
:104FD800697465206661696C65640D0A2E00256434
:104FE800206279746573207772697474656E2E0017
:104FF8004E6F726469630053444300312E303000B1
:105008005465726D696E616C005254540053454783
:10501800474552006C6173745F726573756C7420D8
:105028003A20256400494E00222A2B2C3A3B3C3D6D
:105038003E3F5B5D7C7F0000202020202020202038
:1050480020682828282820202020202020202020F0
:105058002020202020202020481010101010101090
:105068001010101010101010848484848484848498
:1050780084841010101010101081818181818101A9
:105088000101010101010101010101010101010108
:105098000101011010101010108282828282820297
:1050A80002020202020202020202020202020202D8
:1050B800020202101010102000070320041702013A
:1050C800085710408000000074520000385100005A
:1050D8004C52000053756E004D6F6E00547565009C
:1050E800576564005468750046726900536174001E
:1050F800000000004A616E00466562004D61720062
:10510800417072004D6179004A756E004A756C00F5
:1051180041756700536570004F6374004E6F7600E9
:105128004465630000000000414D00504D00000040
:10513800705200006C5200006C5200006C5200006B
:105148006C5200006C5200006C5200006C5200005F
:105158006C5200006C520000FFFFFFFFFFFFFFFFD3
:10516800FFFFFFFFFFFF0000AC510000DC50000014
:10517800E8510000FC500000305100009051000040
:10518800405200009C510000256D2F25642F257981
:105198000000000025612025622025652025542077
:1051A8002559000053756E646179004D6F6E646116
:1051B800790054756573646179005765646E657329
:1051C8006461790054687572736461790046726924
:1051D800646179005361747572646179000000003C
:1051E8004A616E756172790046656272756172799D
:1051F800004D6172636800417072696C004D61799D
:10520800004A756E65004A756C790041756775735B
:10521800740053657074656D626572004F63746FD6
:10522800626572004E6F76656D62657200446563F3
:10523800656D62657200000025483A254D3A255390
:10524800000000009D4A0000B94A0000C54A00005D
:10525800D14A0000ED4A0000F94A0000054B000061
:10526800134B0000000000002E0000004300000067
:08527800504F5349580000009B
:10528000000000000020004000000000002000405E
:105290000000000000000000FF000000000000000F
:1052A000FF000000744E000000000000000100003C
:1052B0000090D003D0500000D0500000D05000002B
:0852C000D0500000D0500000A6
:040000030000037581
:00000001FF
